{
  "height": 948362,
  "hash": "00000000000000000001459c54f32ad19259af8d4b75876ff1851a37d8f36136",
  "previousblockhash": "000000000000000000012fda74ca4615dc8fc0c01504cbb9276a39d961092c91",
  "time": 1778186032,
  "nTx": 2,
  "tx": [
    {
      "txid": "03b4d23ba48dda325ea36fde043458d95410451afd4955fdffc872ce879b859d",
      "hash": "951218fbc4f7e418028acad2b2065da1fc77b7f87b468ba000c88061d2fa1b71",
      "version": 2,
      "size": 486,
      "vsize": 214,
      "weight": 855,
      "locktime": 0,
      "vin": [
        {
          "txid": "fe94f84ea8eb75a1a00d5e70c193caef6fa5a03b4182332a01ab36f5536432db",
          "vout": 0,
          "scriptSig": {
            "asm": "",
            "hex": ""
          },
          "txinwitness": [
            "7e08d6b8aac2b5907caa7e025ec7372614ede3128990ef66439b9ee6d6e5d8495585b96886e6d1ea4622e3f1c91cc9913235d2935cc969733b6102c2083b5f19",
            "20af4619a53176900e8326386e2ebd08e10c7e1d8aaa0c574361b4fe759711a5adac006305544143495401014c6a25de8e89765b9c32f8d9d95b368839d16414618a0ff59cd276bc00cf3b1955143400ca9a3b00000000b5607098d504c16aa6847e8c3340e28c458a3a81c3a848c746c67c1d0957bc8073b1204aea4392cb356e810710e36154359c4a8d592933d5835bf847316762a70068",
            "c050929b74c1a04954b78b4b6035e97a5e078a5a0f28ec96d547bfee9ace803ac0"
          ],
          "sequence": 4294967293
        },
        {
          "txid": "7a0ced6e70bb4765e54dae688d82f13453dbc995722efe519262364be89a4e33",
          "vout": 0,
          "scriptSig": {
            "asm": "",
            "hex": ""
          },
          "txinwitness": [
            "304402204036112adf99b9c0a7d926132d3de848008602dd5d74cce18332a9946cd7785402201067981190a87f1409c2eb9a2765a01fb5f146c733db3c4cc4110cfa27f2ce9f01",
            "02af4619a53176900e8326386e2ebd08e10c7e1d8aaa0c574361b4fe759711a5ad"
          ],
          "sequence": 4294967293
        }
      ],
      "vout": [
        {
          "value": 0.00001092,
          "n": 0,
          "scriptPubKey": {
            "asm": "0 ce666074ebead256306d69051767a896daba30ed",
            "desc": "addr(bc1qeenxqa8tatf9vvrddyz3weagjmdt5v8d0pnpvw)#gu8nwp3n",
            "hex": "0014ce666074ebead256306d69051767a896daba30ed",
            "address": "bc1qeenxqa8tatf9vvrddyz3weagjmdt5v8d0pnpvw",
            "type": "witness_v0_keyhash"
          }
        }
      ],
      "fee": 0.000005,
      "hex": "02000000000102db326453f536ab012a3382413ba0a56fefca93c1705e0da0a175eba84ef894fe0000000000fdffffff334e9ae84b36629251fe2e7295c9db5334f1828d68ae4de56547bb706eed0c7a0000000000fdffffff014404000000000000160014ce666074ebead256306d69051767a896daba30ed03407e08d6b8aac2b5907caa7e025ec7372614ede3128990ef66439b9ee6d6e5d8495585b96886e6d1ea4622e3f1c91cc9913235d2935cc969733b6102c2083b5f199920af4619a53176900e8326386e2ebd08e10c7e1d8aaa0c574361b4fe759711a5adac006305544143495401014c6a25de8e89765b9c32f8d9d95b368839d16414618a0ff59cd276bc00cf3b1955143400ca9a3b00000000b5607098d504c16aa6847e8c3340e28c458a3a81c3a848c746c67c1d0957bc8073b1204aea4392cb356e810710e36154359c4a8d592933d5835bf847316762a7006821c050929b74c1a04954b78b4b6035e97a5e078a5a0f28ec96d547bfee9ace803ac00247304402204036112adf99b9c0a7d926132d3de848008602dd5d74cce18332a9946cd7785402201067981190a87f1409c2eb9a2765a01fb5f146c733db3c4cc4110cfa27f2ce9f012102af4619a53176900e8326386e2ebd08e10c7e1d8aaa0c574361b4fe759711a5ad00000000"
    },
    {
      "txid": "d7d97d06f089071acedb5e359f2e308236443dded3cf7157a7367ad4ad34dc5e",
      "hash": "28debc60598ddffc9548e84c83c0272a1390a3132c63f1ac5b71c28e402cd142",
      "version": 2,
      "size": 1075,
      "vsize": 331,
      "weight": 1321,
      "locktime": 0,
      "vin": [
        {
          "txid": "8950539486b8e76754a7a63f979c94184cda1e3ba3edd23bd577adddcdc7b37b",
          "vout": 0,
          "scriptSig": {
            "asm": "",
            "hex": ""
          },
          "txinwitness": [
            "8f63cde5152ca93a1082203cd7e48999e280693b1971ae2cc30797f150a11bdabb26cab4a6cf37e062af3c69964c7d25fbf1328c47f89bdcc7bc9c6b827fc7ef",
            "20af4619a53176900e8326386e2ebd08e10c7e1d8aaa0c574361b4fe759711a5adac006305544143495401014d080221035449470003e628a2b3ec45424669e637b150aca21552eb54ed095aeae0dfdf29d278fa0341d30c9fb09861997eb0020274f59f0fb5e45aa37648f17ee2bd48dacd40e41957f16e48510c8b1ca70977240266dfdcca9fa878b8a5ee96359d44e264f362334332b70aa4ccb52177dcebb2a702a36730d4593547d37e4ffe171170ca4322c88a6244e62b45bdce62a22acfa03503a3c7d590b7e417e8492dc22e45b70a56e7c8113ee0f07add738c3b61b331ef0b941a4016f2f2dcb56b780b6f1599bb9f958ae407f93e07405a49aecd8ee361a858dc9a73b2f17bc6a18a152c409cdf68456e864362017f0e6d8b8ab1c3bc47336ef4bb87ee13f3ceef9eaba065f624d89575fa261c83e6424363218f6421cb0202e781bc277d884457f17a1a853a893fa11d4508825c20ec1127a68a4a635aa4f802dac3a9b229f3e365e4b8309688756f20cecea529fff0a24b1b7e783acf10d8b4029c5688585bd829ba988ad25d9ffcaccba2057f991476180a919bcddd547647820249783527ba5b8e2077620d7f2feb528649a53bce83be747853d42e7fedb1f385027c65abbec9ff901447b616b6e7c6b911dde11b1a60d89110ac87957409db61cd02f09a3a40845f0fed26a57c8e0dbcfba3c91f02936f2fa3b6c97a280aaaf9814402003af7de44a8d9432cfde9ac1f154405032c2d8ba0484aea3c0118bdef34d6db021b8da8e473d5824f45d3bc4d3d01406080ac161aa15e0410318678f591abea0e659e1803d5c5c9b4fca1b003b9086fe308f9efb996b3fcb26ba67e36c0ca8151788e4c03027a29303fdd62aa20673676d71ac09150f01eff6881f0865a1d0b11c313fef9fa0303d5ee4f6cd3774756278f12bc12fb9570b9eafd0f6732fcb993a1894ea7c4df02f45337999525c46108f520dc354bfe5a8e3b6ef241fcfdac048f2dda8dfff9f3b85a56399efec9d3bbc78f352dc33f3865853e804642dd31b9df9c880e52c37f00150ac61f7c3ae9ece98a2670c7bc8620cf97a210810fd058aede4412e4010200000000000000000000000000000000000000000000000000000000000000004200697066733a2f2f6261666b72656965716e687369733766367074787a6d66667878366462676d697270716a357a327a3478357172687a76707668377a66716168357568",
            "c150929b74c1a04954b78b4b6035e97a5e078a5a0f28ec96d547bfee9ace803ac0"
          ],
          "sequence": 4294967293
        }
      ],
      "vout": [
        {
          "value": 0.00000546,
          "n": 0,
          "scriptPubKey": {
            "asm": "0 ce666074ebead256306d69051767a896daba30ed",
            "desc": "addr(bc1qeenxqa8tatf9vvrddyz3weagjmdt5v8d0pnpvw)#gu8nwp3n",
            "hex": "0014ce666074ebead256306d69051767a896daba30ed",
            "address": "bc1qeenxqa8tatf9vvrddyz3weagjmdt5v8d0pnpvw",
            "type": "witness_v0_keyhash"
          }
        }
      ],
      "fee": 0.00000674,
      "hex": "020000000001017bb3c7cdddad77d53bd2eda33b1eda4c18949c973fa6a75467e7b886945350890000000000fdffffff012202000000000000160014ce666074ebead256306d69051767a896daba30ed03408f63cde5152ca93a1082203cd7e48999e280693b1971ae2cc30797f150a11bdabb26cab4a6cf37e062af3c69964c7d25fbf1328c47f89bdcc7bc9c6b827fc7effd780320af4619a53176900e8326386e2ebd08e10c7e1d8aaa0c574361b4fe759711a5adac006305544143495401014d080221035449470003e628a2b3ec45424669e637b150aca21552eb54ed095aeae0dfdf29d278fa0341d30c9fb09861997eb0020274f59f0fb5e45aa37648f17ee2bd48dacd40e41957f16e48510c8b1ca70977240266dfdcca9fa878b8a5ee96359d44e264f362334332b70aa4ccb52177dcebb2a702a36730d4593547d37e4ffe171170ca4322c88a6244e62b45bdce62a22acfa03503a3c7d590b7e417e8492dc22e45b70a56e7c8113ee0f07add738c3b61b331ef0b941a4016f2f2dcb56b780b6f1599bb9f958ae407f93e07405a49aecd8ee361a858dc9a73b2f17bc6a18a152c409cdf68456e864362017f0e6d8b8ab1c3bc47336ef4bb87ee13f3ceef9eaba065f624d89575fa261c83e6424363218f6421cb0202e781bc277d884457f17a1a853a893fa11d4508825c20ec1127a68a4a635aa4f802dac3a9b229f3e365e4b8309688756f20cecea529fff0a24b1b7e783acf10d8b4029c5688585bd829ba988ad25d9ffcaccba2057f991476180a919bcddd547647820249783527ba5b8e2077620d7f2feb528649a53bce83be747853d42e7fedb1f385027c65abbec9ff901447b616b6e7c6b911dde11b1a60d89110ac87957409db61cd02f09a3a40845f0fed26a57c8e0dbcfba3c91f02936f2fa3b6c97a280aaaf9814402003af7de44a8d9432cfde9ac1f154405032c2d8ba0484aea3c0118bdef34d6db021b8da8e473d5824f45d3bc4d3d01406080ac161aa15e0410318678f591abea0e659e1803d5c5c9b4fca1b003b9086fe308f9efb996b3fcb26ba67e36c0ca8151788e4c03027a29303fdd62aa20673676d71ac09150f01eff6881f0865a1d0b11c313fef9fa0303d5ee4f6cd3774756278f12bc12fb9570b9eafd0f6732fcb993a1894ea7c4df02f45337999525c46108f520dc354bfe5a8e3b6ef241fcfdac048f2dda8dfff9f3b85a56399efec9d3bbc78f352dc33f3865853e804642dd31b9df9c880e52c37f00150ac61f7c3ae9ece98a2670c7bc8620cf97a210810fd058aede4412e4010200000000000000000000000000000000000000000000000000000000000000004200697066733a2f2f6261666b72656965716e687369733766367074787a6d66667878366462676d697270716a357a327a3478357172687a76707668377a6671616835756821c150929b74c1a04954b78b4b6035e97a5e078a5a0f28ec96d547bfee9ace803ac000000000"
    }
  ]
}
