{
  "height": 948399,
  "hash": "000000000000000000018b4e57dbaefa0285367b8d929ac0d9522d8c6123053c",
  "previousblockhash": "000000000000000000004eae3deacca7b5a7e8151043f3fb573c48f8a36a0eed",
  "time": 1778209908,
  "nTx": 1,
  "tx": [
    {
      "txid": "f0c267300cefb2e93c7c853c366753582250d3862186f708c2e8c92af66a82e1",
      "hash": "89383d818b9e4bb370da52673f668c8f068f6b14c628159a4bd81dad79656541",
      "version": 2,
      "size": 1100,
      "vsize": 360,
      "weight": 1439,
      "locktime": 0,
      "vin": [
        {
          "txid": "8e95019940e2045d763b862fb702059a250ada53126d75a260676dc882de1056",
          "vout": 0,
          "scriptSig": {
            "asm": "",
            "hex": ""
          },
          "txinwitness": [
            "985811f322e43442bf833bbf41c0a7b2ff5596b6dd4ed70423eddd9eb7239f2f8dfd146b239ac00cf3d8b24871bc344ed6f1db1accb8824d29ac8387b1d598a183",
            "207b592012d46624b61a627c7bbf0d4a475397408486ff5b158cd84a17d80aee72ac006305544143495401014d080226cd1d62fc6254c90701275f95b552567aa60cd342fb323ae429dd67bd1c03ddc0017c8cdbf659bea36e09df84608ae9dad28e07272aef50a24a829ea5e7d208ec61630c878840657182ebb2d6122dc86ef59e3286973bc66c052b3d91eb83a57b43010348c353ed02ce571c7f21afc39282d8f08475b13f244072f85e30a3632583bb150000000000000000b00202a7ea01e0c4879e432921dce874268b128ecb4b1c83f71f33c70595ec1fd2db5f021e62c974a847c9860b8243111dca6ab1cf5a5c953cc9889630545d38a6655dfa02a2f64580b4c70a8568c16c1c80c53aa10aa0ede9d3bbfbe2b88e447a3dd4764302bca1f97d7d0dc454877e1c3f2ef6a6e904e3d7e78d62a3c1f70cf1eafef4811759504c5e2e3d876ceab491f4e157b15ae0e4a3f999c4888fe12abb77abdb2cd8b1a242bcce9afe3a0436c500b8bd5c884ea9c58f78abb6c0aecc6ceaabed3a927b6e8fad6a62c6a8ba31096f97a709d53c291c9d0b40b9fb640cfdc56eb327c803912ff37c7793d619b307da8128d92082991e0259a18e106b72dd3592b33143ad020ec1a094f0e557ec41adf025cbc16b0d46799e01b531140cd8606b8335af48a0024a9294dd0bcc9f1d9e0f85ae38b9153066b5c39a8d34a3d44e6bab22fc16b3640248d0dcaaeded84977448039afc11c337096b480e9bd19c7461e3b8371645fb8203320210082bf88247bfbf811097ad3681944d3601a1dbc03efb6e7e15cce01a3e432339026cd0a94cd870abc4c27885cafa13e5e455e2148779e23b510002f422071c527903118a651ece946f2ddbe2a29fa5c891e27570e5b3a3049378d59659c61aaeb3160363138a0563d21f3e0e25c476e2f552415054bb3a9c4878bb30d8735cce2e732202442b8cc75f4bcf1073bfef3f1b91ec5825555bd9c4ee1a24f46b09a9f193b3eb02bd1c028435127f9503910fde2ada20933589900661deb2bea9a0f802285650a60269b5f6e51a2978506aba2303e04e8f5b55660c4b4c204653c017b6c1ad8fa1a503503e5bb156459c3e812384e0469c7c99142fd269cb31740a09658d0c6516db6655d5232dc2110273adb1511da4d9d69ade4a6b0f3d35891963c38523ec0562c863ea4aee850f2ccd82273f5591175d5567c0038e3ad4186c4da2152dccaf57bc68",
            "c050929b74c1a04954b78b4b6035e97a5e078a5a0f28ec96d547bfee9ace803ac0"
          ],
          "sequence": 4294967293
        }
      ],
      "vout": [
        {
          "value": 0.00000546,
          "n": 0,
          "scriptPubKey": {
            "asm": "0 aea209254dce6778bae65470dda4e89e4e5d495d",
            "desc": "addr(bc1q463qjf2deenh3whx23cdmf8gne896j2a4x0rxr)#rchxhawn",
            "hex": "0014aea209254dce6778bae65470dda4e89e4e5d495d",
            "address": "bc1q463qjf2deenh3whx23cdmf8gne896j2a4x0rxr",
            "type": "witness_v0_keyhash"
          }
        },
        {
          "value": 0.0000033,
          "n": 1,
          "scriptPubKey": {
            "asm": "0 1ef97891158848014f1775bea82f1dc289a4f345",
            "desc": "addr(bc1qrmuh3yg43pyqznchwkl2stcac2y6fu6920qkev)#ryr37yck",
            "hex": "00141ef97891158848014f1775bea82f1dc289a4f345",
            "address": "bc1qrmuh3yg43pyqznchwkl2stcac2y6fu6920qkev",
            "type": "witness_v0_keyhash"
          }
        }
      ],
      "fee": 0.00000992,
      "hex": "020000000001015610de82c86d6760a2756d1253da0a259a0502b72f863b765d04e2409901958e0000000000fdffffff022202000000000000160014aea209254dce6778bae65470dda4e89e4e5d495d4a010000000000001600141ef97891158848014f1775bea82f1dc289a4f3450341985811f322e43442bf833bbf41c0a7b2ff5596b6dd4ed70423eddd9eb7239f2f8dfd146b239ac00cf3d8b24871bc344ed6f1db1accb8824d29ac8387b1d598a183fd7103207b592012d46624b61a627c7bbf0d4a475397408486ff5b158cd84a17d80aee72ac006305544143495401014d080226cd1d62fc6254c90701275f95b552567aa60cd342fb323ae429dd67bd1c03ddc0017c8cdbf659bea36e09df84608ae9dad28e07272aef50a24a829ea5e7d208ec61630c878840657182ebb2d6122dc86ef59e3286973bc66c052b3d91eb83a57b43010348c353ed02ce571c7f21afc39282d8f08475b13f244072f85e30a3632583bb150000000000000000b00202a7ea01e0c4879e432921dce874268b128ecb4b1c83f71f33c70595ec1fd2db5f021e62c974a847c9860b8243111dca6ab1cf5a5c953cc9889630545d38a6655dfa02a2f64580b4c70a8568c16c1c80c53aa10aa0ede9d3bbfbe2b88e447a3dd4764302bca1f97d7d0dc454877e1c3f2ef6a6e904e3d7e78d62a3c1f70cf1eafef4811759504c5e2e3d876ceab491f4e157b15ae0e4a3f999c4888fe12abb77abdb2cd8b1a242bcce9afe3a0436c500b8bd5c884ea9c58f78abb6c0aecc6ceaabed3a927b6e8fad6a62c6a8ba31096f97a709d53c291c9d0b40b9fb640cfdc56eb327c803912ff37c7793d619b307da8128d92082991e0259a18e106b72dd3592b33143ad020ec1a094f0e557ec41adf025cbc16b0d46799e01b531140cd8606b8335af48a0024a9294dd0bcc9f1d9e0f85ae38b9153066b5c39a8d34a3d44e6bab22fc16b3640248d0dcaaeded84977448039afc11c337096b480e9bd19c7461e3b8371645fb8203320210082bf88247bfbf811097ad3681944d3601a1dbc03efb6e7e15cce01a3e432339026cd0a94cd870abc4c27885cafa13e5e455e2148779e23b510002f422071c527903118a651ece946f2ddbe2a29fa5c891e27570e5b3a3049378d59659c61aaeb3160363138a0563d21f3e0e25c476e2f552415054bb3a9c4878bb30d8735cce2e732202442b8cc75f4bcf1073bfef3f1b91ec5825555bd9c4ee1a24f46b09a9f193b3eb02bd1c028435127f9503910fde2ada20933589900661deb2bea9a0f802285650a60269b5f6e51a2978506aba2303e04e8f5b55660c4b4c204653c017b6c1ad8fa1a503503e5bb156459c3e812384e0469c7c99142fd269cb31740a09658d0c6516db6655d5232dc2110273adb1511da4d9d69ade4a6b0f3d35891963c38523ec0562c863ea4aee850f2ccd82273f5591175d5567c0038e3ad4186c4da2152dccaf57bc6821c050929b74c1a04954b78b4b6035e97a5e078a5a0f28ec96d547bfee9ace803ac000000000"
    }
  ]
}
