{
  "height": 948488,
  "hash": "000000000000000000011b66c1db2f5a91f475d71e1bb2ed697d2c50ba36db18",
  "previousblockhash": "000000000000000000006a7221f47154d21b3b2cde05e2b2704376da43975e3d",
  "time": 1778261154,
  "nTx": 1,
  "tx": [
    {
      "txid": "c2542e7fbaa8c0c9fa632d8720ebf0ba602f9cda8a4c4b1e5ca5d9e41acc4067",
      "hash": "420f31234ab829abe160748225035578fc154330387d9ffa604244690c37f013",
      "version": 2,
      "size": 324,
      "vsize": 143,
      "weight": 570,
      "locktime": 0,
      "vin": [
        {
          "txid": "3354440c51ea1ed6644af544318e0e7c5e0521cad9d60746a399ec145198f5ff",
          "vout": 0,
          "scriptSig": {
            "asm": "",
            "hex": ""
          },
          "txinwitness": [
            "bd51b237103153041bb3718fe21442747eb4860dc418a1a813f865be660c8ab22014c87960c7d38c374c0e2745b4c8c600beaa6e1a66f6d1caed98b6f7b64c3a",
            "20b0649eb23e3a98ba6acce4b4c6336e34e7ae199ee38061ce5192984e469b73eeac006305544143495401014c5c27044641495200406f400100000000640000000000000000000000000000003b0062616679626569636c6c37346a3764327669353379326f7976646a7061666270766572707236636e7566326e756b767a6a7a377a756d796e616a6968",
            "c050929b74c1a04954b78b4b6035e97a5e078a5a0f28ec96d547bfee9ace803ac0"
          ],
          "sequence": 4294967293
        }
      ],
      "vout": [
        {
          "value": 0.00000546,
          "n": 0,
          "scriptPubKey": {
            "asm": "0 bcc345a60e3c294e616da398464ab621e17ea743",
            "desc": "addr(bc1qhnp5tfsw8s55uctd5wvyvj4ky8shaf6r7ngfwh)#qa6q0fgx",
            "hex": "0014bcc345a60e3c294e616da398464ab621e17ea743",
            "address": "bc1qhnp5tfsw8s55uctd5wvyvj4ky8shaf6r7ngfwh",
            "type": "witness_v0_keyhash"
          }
        }
      ],
      "fee": 0.000005,
      "hex": "02000000000101fff5985114ec99a34607d6d9ca21055e7c0e8e3144f54a64d61eea510c4454330000000000fdffffff012202000000000000160014bcc345a60e3c294e616da398464ab621e17ea7430340bd51b237103153041bb3718fe21442747eb4860dc418a1a813f865be660c8ab22014c87960c7d38c374c0e2745b4c8c600beaa6e1a66f6d1caed98b6f7b64c3a8b20b0649eb23e3a98ba6acce4b4c6336e34e7ae199ee38061ce5192984e469b73eeac006305544143495401014c5c27044641495200406f400100000000640000000000000000000000000000003b0062616679626569636c6c37346a3764327669353379326f7976646a7061666270766572707236636e7566326e756b767a6a7a377a756d796e616a696821c050929b74c1a04954b78b4b6035e97a5e078a5a0f28ec96d547bfee9ace803ac000000000"
    }
  ]
}
