{
  "height": 948314,
  "hash": "00000000000000000000c738a9cef3a7c6d4e2aa4d64df2a40618ed8dfa60ad4",
  "previousblockhash": "000000000000000000013c2df4ed53a8f75ec191216e7e4759f94d2058888aaf",
  "time": 1778160056,
  "nTx": 3,
  "tx": [
    {
      "txid": "f569ca3b6ea8b7a4267b05169468c78a9fe916aa82775190189832967404724e",
      "hash": "b9a7ee8048cf02c75428a9658fbc208b83aa0acab076513a5554b82ee49c7ff8",
      "version": 2,
      "size": 1077,
      "vsize": 331,
      "weight": 1323,
      "locktime": 0,
      "vin": [
        {
          "txid": "839352277f5aa92be426e0658454bf440d1469d51a0aa50da2b50a31330a5e5c",
          "vout": 0,
          "scriptSig": {
            "asm": "",
            "hex": ""
          },
          "txinwitness": [
            "14f02ef03b3d82b2dca1a4f8cab90e85b187a546e998e48863934283c244a687636cad573f07fa4bd4e5ef4b6c38b05ba0eb346b6436660adc884f7fca8d64c0",
            "2058632aa1522a3016c3f6938cee37f096eb271949c1c10d58616ad6bd95ed3e04ac006305544143495401014d080221055441434954000378c2844675944a3d73d8122ccef09cf7d959b6c01b43ad1b2f49e1601022fb0a817afe1ecec548c6b00203bf1c157056796f67a9831d7bb4af00b2bdb785f300d5a1e51aefc0f67e788e3e030f39ad2eedf22b1640a6b2e6082a735ff3a8953320d8e618cbbf7b81ba6a8c640383569cd2def47aa97435b61fd034ee7aab3523ab4c24e515b2ad5ad92c40eb1502d6fdc342615c063c26ddf8295719bab7ba219fe79c23bf1c737943e4e9f5324900e760475df3819c7243d80be454c4d0826dea41125214b48b687833bc03e3baa9de4e966c8097ca3509e4b2612534bc0d6ac94442181fd905315bb8b44d37e6b021e73d36f9f7997a7aead5b4b3bed308ca1df9588db353dd53cfb9beb8216b03adc2cfe0ec017580c78a0dfa8ef4750656bd246955a0c10b4f328efd4916650902b8e6cff3edea1af7b8eeb17706bf22c1fda051f13f207e5aa6de8e42299f5bd8035ef70da9b8998b5a34bac44779cb2cffe6a30f534cbbe7f3eaba9f1372fbca810396fdefc2d4a34a6a0b9a00009d6f5b011fb0b921d799807acd158266c63b8d6a0385b271e6cb7fc6cdcaaa85b1af9068beec1fb2a8656db6d0a3efd48c68f75a86032cce59e107921a64a9976a755b3b534d6bda00285bac5e7d83bebaa860c2aab40223a291c61aedc7d3c5d5130c85b6146d7f1d18c77276258f55737590387d6eb00337c1ac196b5adc5a424d3f011227ddc8950c6b30f6ddc270fedb23b70770721ead902802a60db4a16dd1bc952df305ba67c9ba863e9f9652370a30e3e0fb4507f42246e602a47aba441aa79af96268be0b73f5db25fea97dbd6a13150556ce669db96d404a02d96a91ca63ca95c1ed7b66862e9cfc44914948a15f1898c0a5d389a7b9373775023f08812595ae22634e35ab62e35b57322099572af691ea44fc24741b59930b4419bea0a70497c7f147613b47b656acdd73afca8bb13a56564717d1df54b619c461b6be2c345357c4ba08d865036fbb2cdea8289e5bdc40081dabbc82f48861ac58632aa1522a3016c3f6938cee37f096eb271949c1c10d58616ad6bd95ed3e044200697066733a2f2f6261666b7265696337787934766d7a6c74787664737a6e7732787a326e627433737865377036627a686170356534776d353365746a746f6a6f686968",
            "c050929b74c1a04954b78b4b6035e97a5e078a5a0f28ec96d547bfee9ace803ac0"
          ],
          "sequence": 4294967293
        }
      ],
      "vout": [
        {
          "value": 0.00000546,
          "n": 0,
          "scriptPubKey": {
            "asm": "0 02f04cd03b5dc2174ecb061ed8919d7f6f5bd7cc",
            "desc": "addr(bc1qqtcye5pmthppwnktqc0d3yva0ah4h47va6p5p4)#qh3cvwwf",
            "hex": "001402f04cd03b5dc2174ecb061ed8919d7f6f5bd7cc",
            "address": "bc1qqtcye5pmthppwnktqc0d3yva0ah4h47va6p5p4",
            "type": "witness_v0_keyhash"
          }
        }
      ],
      "fee": 0.00002022,
      "hex": "020000000001015c5e0a33310ab5a20da50a1ad569140d44bf548465e026e42ba95a7f275293830000000000fdffffff01220200000000000016001402f04cd03b5dc2174ecb061ed8919d7f6f5bd7cc034014f02ef03b3d82b2dca1a4f8cab90e85b187a546e998e48863934283c244a687636cad573f07fa4bd4e5ef4b6c38b05ba0eb346b6436660adc884f7fca8d64c0fd7a032058632aa1522a3016c3f6938cee37f096eb271949c1c10d58616ad6bd95ed3e04ac006305544143495401014d080221055441434954000378c2844675944a3d73d8122ccef09cf7d959b6c01b43ad1b2f49e1601022fb0a817afe1ecec548c6b00203bf1c157056796f67a9831d7bb4af00b2bdb785f300d5a1e51aefc0f67e788e3e030f39ad2eedf22b1640a6b2e6082a735ff3a8953320d8e618cbbf7b81ba6a8c640383569cd2def47aa97435b61fd034ee7aab3523ab4c24e515b2ad5ad92c40eb1502d6fdc342615c063c26ddf8295719bab7ba219fe79c23bf1c737943e4e9f5324900e760475df3819c7243d80be454c4d0826dea41125214b48b687833bc03e3baa9de4e966c8097ca3509e4b2612534bc0d6ac94442181fd905315bb8b44d37e6b021e73d36f9f7997a7aead5b4b3bed308ca1df9588db353dd53cfb9beb8216b03adc2cfe0ec017580c78a0dfa8ef4750656bd246955a0c10b4f328efd4916650902b8e6cff3edea1af7b8eeb17706bf22c1fda051f13f207e5aa6de8e42299f5bd8035ef70da9b8998b5a34bac44779cb2cffe6a30f534cbbe7f3eaba9f1372fbca810396fdefc2d4a34a6a0b9a00009d6f5b011fb0b921d799807acd158266c63b8d6a0385b271e6cb7fc6cdcaaa85b1af9068beec1fb2a8656db6d0a3efd48c68f75a86032cce59e107921a64a9976a755b3b534d6bda00285bac5e7d83bebaa860c2aab40223a291c61aedc7d3c5d5130c85b6146d7f1d18c77276258f55737590387d6eb00337c1ac196b5adc5a424d3f011227ddc8950c6b30f6ddc270fedb23b70770721ead902802a60db4a16dd1bc952df305ba67c9ba863e9f9652370a30e3e0fb4507f42246e602a47aba441aa79af96268be0b73f5db25fea97dbd6a13150556ce669db96d404a02d96a91ca63ca95c1ed7b66862e9cfc44914948a15f1898c0a5d389a7b9373775023f08812595ae22634e35ab62e35b57322099572af691ea44fc24741b59930b4419bea0a70497c7f147613b47b656acdd73afca8bb13a56564717d1df54b619c461b6be2c345357c4ba08d865036fbb2cdea8289e5bdc40081dabbc82f48861ac58632aa1522a3016c3f6938cee37f096eb271949c1c10d58616ad6bd95ed3e044200697066733a2f2f6261666b7265696337787934766d7a6c74787664737a6e7732787a326e627433737865377036627a686170356534776d353365746a746f6a6f68696821c050929b74c1a04954b78b4b6035e97a5e078a5a0f28ec96d547bfee9ace803ac000000000"
    },
    {
      "txid": "80f52ac1bedf5e70db29fe981cdf6a5fe9da3bb74397beb0dc4c97da7a12e6bd",
      "hash": "f090466dc8d6f0ecd8ecf65601ab479d3e9c16fe387e962c2dfa25cf35fba951",
      "version": 2,
      "size": 1354,
      "vsize": 454,
      "weight": 1816,
      "locktime": 0,
      "vin": [
        {
          "txid": "5d6ab5bdf313fa9a6f9b07eb700772a0d2899f341e67fb0db58571329e39b266",
          "vout": 0,
          "scriptSig": {
            "asm": "",
            "hex": ""
          },
          "txinwitness": [
            "0b69c6a09b098c0c769c999baecfca57232170ae92c051a6b274239b2623d202c9c188a0982813f7fae108e0de9b533cbaa126833ce168d63ecce598d0e217ea",
            "209684c51dcc870720544101a926f02c749a84deed2bd8c3ee5d4e944cc9962cc2ac006305544143495401014d080223627054b4a31f1209a0315abfadcded93cf1978ac7d203b5d191849937c3f6d435dce381bf783b2fe084aa5923e315e9199d380e3bb9ffc5804ecae6e37ed0430c28b36477b1e0222bf710ef9721082cdf9879d1e49dcc4c9744dc5610f8cc2f0020372e9fbf4b0fa2337de8a77ad54f1acc4bf5c023387029042a073fab4e4139502292281970cc851e403eb122ecb2a5f21dc29fd54d3340ec293f520cdc8619673d2286ac24cb115b86088eead3f3f3c7e62f20203ed36ba4507214ba0035ca99db71fe0302c2145f891f312894666f9106e1cd750025cec73727d0ed32de48dd66f16143dd403dc43c978b4dd996638b0f23f65211102e90a6a9355e7f97d14224d38d047437120072676f1e84a9f8958ea6fa3258ee10291e8ed68ad645762cf9064a20112746caaf388c2c71313436c1f743af7b6402ab8d988a9e846ca107b5e83c900ae5738ec747618428df9252ef3d02e3039bba792088489455203ca686c54b930b96a76087b160f40daa527981ab91c18a2a48400f828dbc1027368667c7be62e213571f9b09e1a8f69f85d5334593dacd0a9470360e44802d04b88798efb63e0265d39fedb4a8a205ffc43d1822325e17a14cfda037e4c0140cc1af5228e4628df9dbf57dedca409f3cec407a03b56bbb3d55cf6a8023fe698db275a26f7019556f2ebb0f8fffad9e9d2b7a35fb6d89a148177cb11470347fe577fdbc78f8ad9cd4da001c767018615f09dfda14a1642210b746ef0fa64a0a3e9032cfa12b2e68387d8617443a15c10a8a093d338b9f042a78a3a3276fbea83853903d79aab9ba7cc09bfb5e49694f12be083ffe80ff19b444da2c0fd19361145d13a0295c8643a7068a02e77db83a496de6a01fba0cb0278950b03f5b0db1dd3980b4203523ab78afd72ec33325a60897086faebd317e294508e580db8c3632cafc3b7b503d2a2b7808c39dcfea20433a91a2fdf69ac2302e5ffa094c621cb2e8ab7e247700207c81cdca7aa37c5f9b09ec157f1cd7ffda12c493ff6424b5c31c7ea83dc9729021309a5f411309addfc38bfb4ec7fcb8177c13f705e4f834e61a1732204a398ca028db7cddd13f4d0f927b835b89916f3ade4216d0d7c937d32dd2d18a880eada1e037d53455944066705066a5df116d6ac4d0fc66522b5bf397b093ae2989e408db9029bf09afe9854bd8fa38313567e8965115aced57d2731147934a7fd6bf4c1f004e71f3f7ff1c8baef744422cf74dec462644fc481e84bac0419afcc1c4274506bf72efe50b41ecfd1eecbb59bbd8a414fb9fb914f8dc57f3aeaa135ee7806720b68",
            "c050929b74c1a04954b78b4b6035e97a5e078a5a0f28ec96d547bfee9ace803ac0"
          ],
          "sequence": 4294967293
        },
        {
          "txid": "09ee3a2e7febdce7df47e42ae2b6c59ff63e69d3bfea2401e2ae6a7a856eecdb",
          "vout": 1,
          "scriptSig": {
            "asm": "",
            "hex": ""
          },
          "txinwitness": [
            "3045022100e7460d32f4d461193d9cd54cc76637f2775a051a6d8bf62909477f24dbf21e8d02206cba690035bc3d13f5684eac17213f0f69327575bf0293e80a9c52ba90b60e2401",
            "039684c51dcc870720544101a926f02c749a84deed2bd8c3ee5d4e944cc9962cc2"
          ],
          "sequence": 4294967293
        }
      ],
      "vout": [
        {
          "value": 0.00000546,
          "n": 0,
          "scriptPubKey": {
            "asm": "0 b7f407fbd466e12e6d88200d6066f8a15a1689f8",
            "desc": "addr(bc1qkl6q0775vmsjumvgyqxkqehc59dpdz0c8d7erl)#90dsxyth",
            "hex": "0014b7f407fbd466e12e6d88200d6066f8a15a1689f8",
            "address": "bc1qkl6q0775vmsjumvgyqxkqehc59dpdz0c8d7erl",
            "type": "witness_v0_keyhash"
          }
        },
        {
          "value": 0.00000546,
          "n": 1,
          "scriptPubKey": {
            "asm": "0 2a64c605d699bf51d7d8b767e059728d2f5c80b1",
            "desc": "addr(bc1q9fjvvpwknxl4r47ckan7qktj35h4eq93mj09h2)#laf7n8re",
            "hex": "00142a64c605d699bf51d7d8b767e059728d2f5c80b1",
            "address": "bc1q9fjvvpwknxl4r47ckan7qktj35h4eq93mj09h2",
            "type": "witness_v0_keyhash"
          }
        }
      ],
      "fee": 0.0000246,
      "hex": "0200000000010266b2399e327185b50dfb671e349f89d2a0720770eb079b6f9afa13f3bdb56a5d0000000000fdffffffdbec6e857a6aaee20124eabfd3693ef69fc5b6e22ae447dfe7dceb7f2e3aee090100000000fdffffff022202000000000000160014b7f407fbd466e12e6d88200d6066f8a15a1689f822020000000000001600142a64c605d699bf51d7d8b767e059728d2f5c80b103400b69c6a09b098c0c769c999baecfca57232170ae92c051a6b274239b2623d202c9c188a0982813f7fae108e0de9b533cbaa126833ce168d63ecce598d0e217eafddb03209684c51dcc870720544101a926f02c749a84deed2bd8c3ee5d4e944cc9962cc2ac006305544143495401014d080223627054b4a31f1209a0315abfadcded93cf1978ac7d203b5d191849937c3f6d435dce381bf783b2fe084aa5923e315e9199d380e3bb9ffc5804ecae6e37ed0430c28b36477b1e0222bf710ef9721082cdf9879d1e49dcc4c9744dc5610f8cc2f0020372e9fbf4b0fa2337de8a77ad54f1acc4bf5c023387029042a073fab4e4139502292281970cc851e403eb122ecb2a5f21dc29fd54d3340ec293f520cdc8619673d2286ac24cb115b86088eead3f3f3c7e62f20203ed36ba4507214ba0035ca99db71fe0302c2145f891f312894666f9106e1cd750025cec73727d0ed32de48dd66f16143dd403dc43c978b4dd996638b0f23f65211102e90a6a9355e7f97d14224d38d047437120072676f1e84a9f8958ea6fa3258ee10291e8ed68ad645762cf9064a20112746caaf388c2c71313436c1f743af7b6402ab8d988a9e846ca107b5e83c900ae5738ec747618428df9252ef3d02e3039bba792088489455203ca686c54b930b96a76087b160f40daa527981ab91c18a2a48400f828dbc1027368667c7be62e213571f9b09e1a8f69f85d5334593dacd0a9470360e44802d04b88798efb63e0265d39fedb4a8a205ffc43d1822325e17a14cfda037e4c0140cc1af5228e4628df9dbf57dedca409f3cec407a03b56bbb3d55cf6a8023fe698db275a26f7019556f2ebb0f8fffad9e9d2b7a35fb6d89a148177cb11470347fe577fdbc78f8ad9cd4da001c767018615f09dfda14a1642210b746ef0fa64a0a3e9032cfa12b2e68387d8617443a15c10a8a093d338b9f042a78a3a3276fbea83853903d79aab9ba7cc09bfb5e49694f12be083ffe80ff19b444da2c0fd19361145d13a0295c8643a7068a02e77db83a496de6a01fba0cb0278950b03f5b0db1dd3980b4203523ab78afd72ec33325a60897086faebd317e294508e580db8c3632cafc3b7b503d2a2b7808c39dcfea20433a91a2fdf69ac2302e5ffa094c621cb2e8ab7e247700207c81cdca7aa37c5f9b09ec157f1cd7ffda12c493ff6424b5c31c7ea83dc9729021309a5f411309addfc38bfb4ec7fcb8177c13f705e4f834e61a1732204a398ca028db7cddd13f4d0f927b835b89916f3ade4216d0d7c937d32dd2d18a880eada1e037d53455944066705066a5df116d6ac4d0fc66522b5bf397b093ae2989e408db9029bf09afe9854bd8fa38313567e8965115aced57d2731147934a7fd6bf4c1f004e71f3f7ff1c8baef744422cf74dec462644fc481e84bac0419afcc1c4274506bf72efe50b41ecfd1eecbb59bbd8a414fb9fb914f8dc57f3aeaa135ee7806720b6821c050929b74c1a04954b78b4b6035e97a5e078a5a0f28ec96d547bfee9ace803ac002483045022100e7460d32f4d461193d9cd54cc76637f2775a051a6d8bf62909477f24dbf21e8d02206cba690035bc3d13f5684eac17213f0f69327575bf0293e80a9c52ba90b60e240121039684c51dcc870720544101a926f02c749a84deed2bd8c3ee5d4e944cc9962cc200000000"
    },
    {
      "txid": "c7f417625cf7e3585aba8e95d6785fcd9f1846af5d50de42ffd0fefdfbf31fb2",
      "hash": "1643d2bcec37661fb503fa6c60837a82ea4e2f7f7135074eda6056015d1bf869",
      "version": 2,
      "size": 1098,
      "vsize": 336,
      "weight": 1344,
      "locktime": 0,
      "vin": [
        {
          "txid": "81e03b903d3f33ac1ea0141e3c8ce8a1fc1dd2947e8718a33f2bad2fa78c9578",
          "vout": 0,
          "scriptSig": {
            "asm": "",
            "hex": ""
          },
          "txinwitness": [
            "a551b8b3f7464029f11e8117ce2a4404781299031c5e9cecb9b61a65d6bd437cfee27b3257a53650756541ef1f28dc4efbfde36acf399c9dffd7927b497804bc",
            "2058632aa1522a3016c3f6938cee37f096eb271949c1c10d58616ad6bd95ed3e04ac006305544143495401014d080224394dbe480bf96f65a771cd9326080ab69471ef1ecaf84b8b1aaba5ff01a75dc9f569ca3b6ea8b7a4267b05169468c78a9fe916aa82775190189832967404724e030c93a6a5859a02c5e2222d45c44c6b36ea6c59cf435f219ee18a07e3233eb51774461f5c7103b0c9b0020284ecdfd9898f2727d36c485e640053c6718f96a058766740beadc3cb15d7dfb4023f509a74b99b19097c3a06eae54d1a3cb97d952542ad81eb9130c7cd7db7885703b58d963ed36c6ff209cdd4fe2f1f84b747f44a6c40e21b4a1a44f97446ee14a302074b3cf016f876c84ac1f3e6b07646ca572bf86f98dffc289518bb8a617daf9bb02aa5a8f440feac0ac98b7b9b31ddd55507e6f5454d21ce8b2d91c611c306e5cb42937fbae9eeddc1d81a129266d85bf11e2d3f73a528b8dcb23ee9b73a19a3c62df3614de59c2a8c80339b0f287ba4d640ab40740a4840a9c332f36989e3b203c80e71eeed5c75dfb1c043b5f044766d0350fea2874553ed436c071370dc0d0003e27cdd78eba8e37b4302551e6e439dab31f1413d4c48e7c74448694edab8ee5902105f2a11fd57cd8f0ee1edfe3a1894fef57a8de47da1ea9905663b9ed282b47a02f77f0aac597fd8234aab338a082f40f17fe4417dd8d93bc9fd972b3f16985c300367e4acd7a7b6d0114421f591145d77a40b0d676636d4b038d3cc040b0da33f250290599c2d4b89d97c7dfc88ec19e38f7cc6cf4d5401860422b9c0f07be2f468a9cb73e003ec690295d497b383a2dc811c791c6cae8f61b2ef65e771f7019bf44fd0100b2302dc521a36a4c69c4c7c1697dcd7877fa4da3b1354e23fce7b6ccdbc3bd55d6453031c87c6c6548cd1097b0d47196c13265115fa2ee19bfd2fdb4aa115d44519090603ab0adaeef754d6264b0d07bdcd2ce3833703028403dff8869be3418546d6ae58021a289570205f8d12c559a6bd583ea3abdce6a1b75dacad5e4bc69bb5efd52531030660ee5f29cb5d0a38b6a76a106ce2d4a4eebaa16d1e8c64bf6e4a6e52bda489931854eeede893d7b7f39ccd6d6bd0e7c622e55e07b7a612601f2bd913312266b0a4124c9f23eafc0449bd627eb798e9126d506b17e66dab067f8021158651ca402acabed98931f3aa3cb331c3f8077a5476b49ac0f3d84d37a75a7fc833b4ab34ba79e4733dfb849df1e69db91774bdd8540e632fa1895cfd7c20574db98e6a68",
            "c050929b74c1a04954b78b4b6035e97a5e078a5a0f28ec96d547bfee9ace803ac0"
          ],
          "sequence": 4294967293
        }
      ],
      "vout": [
        {
          "value": 0.00000546,
          "n": 0,
          "scriptPubKey": {
            "asm": "0 02f04cd03b5dc2174ecb061ed8919d7f6f5bd7cc",
            "desc": "addr(bc1qqtcye5pmthppwnktqc0d3yva0ah4h47va6p5p4)#qh3cvwwf",
            "hex": "001402f04cd03b5dc2174ecb061ed8919d7f6f5bd7cc",
            "address": "bc1qqtcye5pmthppwnktqc0d3yva0ah4h47va6p5p4",
            "type": "witness_v0_keyhash"
          }
        }
      ],
      "fee": 0.00001705,
      "hex": "0200000000010178958ca72fad2b3fa318877e94d21dfca1e88c3c1e14a01eac333f3d903be0810000000000fdffffff01220200000000000016001402f04cd03b5dc2174ecb061ed8919d7f6f5bd7cc0340a551b8b3f7464029f11e8117ce2a4404781299031c5e9cecb9b61a65d6bd437cfee27b3257a53650756541ef1f28dc4efbfde36acf399c9dffd7927b497804bcfd8f032058632aa1522a3016c3f6938cee37f096eb271949c1c10d58616ad6bd95ed3e04ac006305544143495401014d080224394dbe480bf96f65a771cd9326080ab69471ef1ecaf84b8b1aaba5ff01a75dc9f569ca3b6ea8b7a4267b05169468c78a9fe916aa82775190189832967404724e030c93a6a5859a02c5e2222d45c44c6b36ea6c59cf435f219ee18a07e3233eb51774461f5c7103b0c9b0020284ecdfd9898f2727d36c485e640053c6718f96a058766740beadc3cb15d7dfb4023f509a74b99b19097c3a06eae54d1a3cb97d952542ad81eb9130c7cd7db7885703b58d963ed36c6ff209cdd4fe2f1f84b747f44a6c40e21b4a1a44f97446ee14a302074b3cf016f876c84ac1f3e6b07646ca572bf86f98dffc289518bb8a617daf9bb02aa5a8f440feac0ac98b7b9b31ddd55507e6f5454d21ce8b2d91c611c306e5cb42937fbae9eeddc1d81a129266d85bf11e2d3f73a528b8dcb23ee9b73a19a3c62df3614de59c2a8c80339b0f287ba4d640ab40740a4840a9c332f36989e3b203c80e71eeed5c75dfb1c043b5f044766d0350fea2874553ed436c071370dc0d0003e27cdd78eba8e37b4302551e6e439dab31f1413d4c48e7c74448694edab8ee5902105f2a11fd57cd8f0ee1edfe3a1894fef57a8de47da1ea9905663b9ed282b47a02f77f0aac597fd8234aab338a082f40f17fe4417dd8d93bc9fd972b3f16985c300367e4acd7a7b6d0114421f591145d77a40b0d676636d4b038d3cc040b0da33f250290599c2d4b89d97c7dfc88ec19e38f7cc6cf4d5401860422b9c0f07be2f468a9cb73e003ec690295d497b383a2dc811c791c6cae8f61b2ef65e771f7019bf44fd0100b2302dc521a36a4c69c4c7c1697dcd7877fa4da3b1354e23fce7b6ccdbc3bd55d6453031c87c6c6548cd1097b0d47196c13265115fa2ee19bfd2fdb4aa115d44519090603ab0adaeef754d6264b0d07bdcd2ce3833703028403dff8869be3418546d6ae58021a289570205f8d12c559a6bd583ea3abdce6a1b75dacad5e4bc69bb5efd52531030660ee5f29cb5d0a38b6a76a106ce2d4a4eebaa16d1e8c64bf6e4a6e52bda489931854eeede893d7b7f39ccd6d6bd0e7c622e55e07b7a612601f2bd913312266b0a4124c9f23eafc0449bd627eb798e9126d506b17e66dab067f8021158651ca402acabed98931f3aa3cb331c3f8077a5476b49ac0f3d84d37a75a7fc833b4ab34ba79e4733dfb849df1e69db91774bdd8540e632fa1895cfd7c20574db98e6a6821c050929b74c1a04954b78b4b6035e97a5e078a5a0f28ec96d547bfee9ace803ac000000000"
    }
  ]
}
